:020000040800F2
:100000000020002075050008C1050008C105000892
:1000100000000000000000000000000000000000E0
:10002000000000000000000000000000C105000802
:100030000000000000000000C1050008690300087E
:10004000C1050008C1050008C1050008C105000878
:10005000C105000831020008C1050008C1050008FB
:10006000C1050008C1050008C1050008C105000858
:10007000C1050008C1050008C1050008C105000848
:10008000C1050008C105000800000000C105000806
:10009000A5020008C1050008C1050008C105000847
:1000A000C1050008C1050008C1050008C105000818
:1000B000C105000800000000C105000800000000A4
:1000C0005FF808F138B5041C3E4B5B680C22134006
:1000D000042B06D0082B07D0002B1CD13A4B036011
:1000E0001BE0394B036018E0364B5D685B68AD027E
:1000F0002D0F0235DB0303D43448454325600CE063
:10010000304BDB6A0F21194001312F4800F0D4FC3D
:100110004543256001E02C4B03602A494B681B06D0
:100120001B0F2B48C35CDBB225682A1CDA40131C6A
:1001300062604A685205520F825CD2B2D340A3601B
:100140000A6BD20502D4234AE26008E01D4A5268D5
:10015000520402D45A08E26001E09A08E260194AA7
:10016000126B520602D41C4A226102E08022120263
:100170002261144A126BD20602D4134A626100E073
:100180006561104A126B920701D1A36119E00D4B12
:100190001B6B03221340012B01D1A56111E0094B18
:1001A0001B6B03221340022B03D180231B02A3618C
:1001B00007E0044B1B6B03221340032B01D1024BBE
:1001C000A36138BD0010024000127A0000093D0012
:1001D00000000020809FD50012800000002904D07C
:1001E000044A53691843506103E0024A5369834348
:1001F0005361704700100240002904D0044A9369FB
:100200001843906103E0024A936983439361704706
:1002100000100240002904D0044AD3691843D06179
:1002200003E0024AD3698343D36170470010024060
:1002300010B5012000F0EAFB002825D0012000F0D5
:10024000EFFB124B1B78002B1ED000230F4A1370BC
:100250000F4908680F4A1060137153710E4A937169
:100260000E4A136801208343136009680C4C323135
:10027000201C00F073FB201C002100F061FB201CFF
:100280000221012200F06CFB10BDC04610000020CE
:100290004C000020280000207000002000040140D5
:1002A0000040014038B51F48022100F063FB0028E0
:1002B00036D01C4D281C022100F068FB1A4C216826
:1002C0003231281C00F04AFB184B1B682268D318F7
:1002D00023602379DBB2072B0CD90124144B1C704B
:1002E000281C0221002200F03BFB124B1A68144329
:1002F0001C6015E00C4B1B79002B0CD09020C00526
:10030000012100F03DFA084A1179537901398840FA
:100310000343DBB25371044A13790133DBB2137127
:1003200038BDC04600400140280000204C0000209D
:10033000100000200004014038B581B2094800F0E7
:10034000A3FA084C201C802100F0A2FA0028F9D062
:10035000044D80246402281C211C00F099FA002816
:10036000F9D138BD00440040024A936801339360DC
:100370007047C04628000020064B9A689B689B1A6D
:10038000984205D90349C0468B689B1A8342FAD329
:100390007047C04628000020F0B5474680B492B0B0
:1003A0008024A402201C0121FFF718FF80204002B6
:1003B0000121FFF721FF201C0121FFF72BFF5D4BDF
:1003C0009846181CFFF77EFE5B4D01262E60002428
:1003D0002C71AC710227EF716C719020C005291C43
:1003E00000F07CF904232B602F71AC71EF716C71FC
:1003F0009020C005291C00F071F99020C005022151
:10040000012200F0C3F94D499625AD010D604C6104
:1004100008230B61CC608C604C60494F381C00F0A5
:10042000C7F9381C012100F023FA464900270C8146
:100430004C80454B4B600C808F72444800F02EFA84
:100440004248022100F0A2FA40480221002200F0B6
:1004500087FA43469B68D800C018291C00F02CFB83
:100460003B4B18601868092100F026FB394B1860D7
:100470003948066007710C234371867100F08AFACF
:100480000020002100F0D2FA344D05232B706F704C
:10049000AE70281C00F0E0FA14232B706E70AE7062
:1004A000281C00F0D9FA2948012100F04BFA2C4B06
:1004B0001868FA21890000F0FFFA03021B0A013BC9
:1004C000284A536028490B6A1B021B0AC0200006F9
:1004D00003430B6294600723136002A800214022AB
:1004E00000F07CFB0A20FFF747FF6B46DC800633F9
:1004F0001B889BB21F2B1CD81C4C1D4E251C6B4609
:10050000D8880A30C0B2FFF717FF2378002BFCD041
:100510006B469A1DDB8871795B0002A81952012392
:100520002B70138801339BB2138013889BB21F2B4F
:10053000E5D9FEE7540000204400002078000020A8
:100540000044004038000020FFFF00000040014050
:10055000500000204C0000207000002034000020DB
:100560002400002010E000E000ED00E0100000207A
:10057000280000200C488546002103E00B4B5B5807
:10058000435004310A480B4B42189A42F6D30A4AA8
:1005900002E0002313600432084B9A42F9D300F0C2
:1005A0006BF8FFF7F9FEFEE700200020680C00085A
:1005B00000000020280000202800002090000020DB
:1005C000FEE7000082B0002301930093274A1368DE
:1005D000802149020B431360111C80229202A0204B
:1005E000C0010B6813400093019B01330193009BF2
:1005F000002B02D1019B8342F3D11C4B1B689B0350
:1006000002D50123009301E000230093009B012BFE
:100610002AD11122164B1A60144B5A685A605A6834
:100620005A605968134A0A405A605A688821490337
:100630000A435A601A68802149040A431A60191C47
:10064000802292040B681342FCD0084B5A680321A5
:100650008A435A60596802220A435A60191C0C22C4
:100660004B681340082BFBD102B0704700100240CA
:1006700000200240FFFFC0FF08B5124B1A6801219D
:100680000A431A605868104A02405A6018680F4AB4
:1006900002401A6018680E4A02401A6058680D4AF3
:1006A00002405A60DA6A0F208243DA62186B0A4A03
:1006B00002401A635A6B8A435A6300229A60FFF71A
:1006C00081FF08BD001002400CB8FFF8FFFFF6FEE6
:1006D000FFFFFBFFFFFFC0FFACFEFFFFF0B54F4683
:1006E0004646C0B40025002201260327331C934050
:1006F0000C681C409C423AD10B79013B012B1DD860
:1007000083683C1CAC40A343836084684B79AB4056
:10071000234383608388984613041B0C9946341C3A
:100720009C404346A34383808488A4468C794B46EF
:100730009C40231C644623439BB2838003683C1C7B
:10074000AC40A343036004680B79AB4023430360D0
:10075000C3689C461304DB0B3C1C9C40231C644672
:100760009C43C460C468CB79AB402343C36001326F
:100770000235102ABAD10CBC90469946F0BDC0464D
:10078000008A0840411E8841C0B2704710B5072357
:100790000B409B00C90889004018016A0F249C4047
:1007A000A1430162016A9A40131C0B43036210BD0E
:1007B000F0B58BB0041C0D1C036801229343036049
:1007C0004268264B13408A68134343600268244BF7
:1007D0001A40CB6849680B4329690B4313430360F4
:1007E0008268204B13406A691343836003A8FFF7B4
:1007F00069FC1D4B9C4201D1099E00E0059E2368C7
:100800001B040CD576002B68301C0193191C00F0DA
:1008100053F9071C301C019900F0D4F90AE02B6849
:10082000301C0193191C00F047F9071C301C01997A
:1008300000F0C8F92A685208002391425B41FF1872
:1008400023681B0405D53A07520F084B3B401A4357
:10085000171CBBB2A3810BB0F0BDC046FFCFFFFF9A
:10086000F3E9FFFFFFFCFFFF00380140F0FF00004D
:10087000002904D0026801231343036003E00368E6
:100880000122934303607047C905C90D0185704774
:10089000C0690840411E8841C0B2704710B5038846
:1008A0009BB2204A904206D08022D205904202D0CC
:1008B0001D4A904231D1702293434A8813431B4A08
:1008C000904219D00A891A4C2340134303804B6885
:1008D000C3620B880385134B984208D0154B98428E
:1008E00005D0154B984202D0144B984201D18B7A17
:1008F00003860123838214E00C4A13804B68D36281
:100900000B881385F5E70A89094C234013430380BC
:100910004B68C3620B880385E0E7044A9042F2D13A
:10092000EAE710BD002C0140000400400010004028
:10093000FFFCFFFF0040014000440140004801402F
:1009400041627047002904D00288012313430380C9
:1009500003E003880122934303807047416370479B
:10096000002A03D083891943818102E083898B4364
:1009700083817047028A808983B200200A4203D0B3
:100980001940481E8141C8B27047C046C94389B268
:100990000182704710B58379002B2CD01A4B1A684E
:1009A00001688A431A605A6801688A435A6002796A
:1009B0009C46624411680468214311609A6801688A
:1009C0008A439A60DA6801688A43DA604379102BB7
:1009D00009D163469A6801680A439A60D968026837
:1009E0000A43DA600FE0084A9446634419680268D3
:1009F0000A431A6007E00379034A944663441A687D
:100A000001688A431A6010BD00040140034B5B6912
:100A10001840431E9841C0B27047C04600040140D0
:100A2000014B58617047C0460004014010B50323D4
:100A30000B409B0089088900064A944661448A68F5
:100A40000F249C40A2438A608A689840031C134389
:100A50008B6010BD0000014070B58378002B1ED064
:100A600002789508AD00134B9C466544C026B6003D
:100A7000AB5903242240D400FF22111CA1408B4318
:100A8000417889010A40A2401343AB5103781F22E9
:100A900013401E3A9A40131C6246136008E0037824
:100AA0001F2213401E3A9A40131C802201498B508A
:100AB00070BDC04600E100E0002243088B4274D3C1
:100AC00003098B425FD3030A8B4244D3030B8B424F
:100AD00028D3030C8B420DD3FF22090212BA030C58
:100AE0008B4202D31212090265D0030B8B4219D339
:100AF00000E0090AC30B8B4201D3CB03C01A524159
:100B0000830B8B4201D38B03C01A5241430B8B42A0
:100B100001D34B03C01A5241030B8B4201D30B0389
:100B2000C01A5241C30A8B4201D3CB02C01A5241B0
:100B3000830A8B4201D38B02C01A5241430A8B4273
:100B400001D34B02C01A5241030A8B4201D30B025C
:100B5000C01A5241CDD2C3098B4201D3CB01C01A76
:100B6000524183098B4201D38B01C01A5241430980
:100B70008B4201D34B01C01A524103098B4201D36E
:100B80000B01C01A5241C3088B4201D3CB00C01ADB
:100B9000524183088B4201D38B00C01A5241430853
:100BA0008B4201D34B00C01A5241411A00D2014678
:100BB000524110467047FFE701B5002000F00CF8E5
:100BC00002BDC0460029F7D003B5FFF775FF0EBC84
:100BD0004243891A1847C0467047C04670B583071C
:100BE0003FD0541E002A3BD0CEB2031C032503E0A5
:100BF000621E002C34D0141C01335A1E16702B4276
:100C0000F6D1032C24D9FF250D402A0215432A04CE
:100C100015430F2C11D9261C103E3609013636011A
:100C20001A1C9B19156055609560D560103293426F
:100C3000F8D10F221440032C0AD9261FB60801361A
:100C4000B6001A1C9B1920C29342FCD10322144007
:100C5000002C05D0C9B21C1919700133A342FBD175
:080C600070BD141C031CCCE75D
:100C6800000000000102030401020304060708094A
:100C78000100000000000000000000000102030461
:080C880006070809006CDC02FC
:0400000508000000EF
:00000001FF
